:100000000C943F000C945C000C945C000C945C001D
:100010000C945C000C945C000C945C000C945C00F0
:100020000C945C000C945C000C945C000C945C00E0
:100030000C945C000C945C000C945C000C945C00D0
:100040000C945C000C945C000C9417030C945C0002
:100050000C945C000C945C000C945C000C945C00B0
:100060000C94F8000C945C006D0273027902A602F5
:10007000A602A602A6027F02850290029B0211241C
:100080001FBECFEFD8E0DEBFCDBF11E0A0E0B1E0F2
:10009000EAE2F7E002C005900D92AA30B107D9F765
:1000A00021E0AAE0B1E001C01D92A737B207E1F755
:1000B0000E9492010C9493030C94000080E68093BC
:1000C0007C00EAE7F0E087E88083808180648083B9
:1000D00080917A0086FDFCCF0895ECE7F0E09081F6
:1000E000907F8F70892B8083EAE7F0E080818064C5
:1000F000808380917A0086FDFCCF809179000895FD
:1001000097B19F7C97B998B1906398B990E0880FA8
:10011000991F81608093BA0085E48093BC000895A4
:100120008AB18C638AB98BB1837C8BB908959BB1FA
:10013000937C9BB980FF03C09BB194609BB981FF06
:1001400003C09BB198609BB982FF03C09BB19061D3
:100150009BB983FF03C08BB180628BB908958091F6
:100160000B018F5F80930B01883014F010920B010C
:10017000E0910B01F0E0EF5FFE4F80810E9497005D
:1001800080910E0190910F01019690930F01809341
:100190000E01089580910B01815080930B018823FB
:1001A0001CF487E080930B01E0910B01F0E0EF5F1E
:1001B000FE4F80810E94970080910E0190910F0167
:1001C000019790930F0180930E010895282F30E03E
:1001D000A0EDB7E00E94840324EB30E040E050E063
:1001E0000E943D03C9018053984F0E940103089566
:1001F0001F920F920FB60F9211242F933F934F939C
:100200005F936F937F938F939F93AF93BF93EF937E
:10021000FF938091B900887F883809F44DC040F47D
:100220008037A9F08038C9F0803609F067C00FC068
:10023000883B09F445C020F4883A09F441C05EC007
:10024000803C09F457C0883C09F454C057C0109250
:100250000A0185EC8093BC0054C08091BB00909152
:100260000A01911106C08093000181E080930A0188
:100270001FC08093100160911001862F90E0A0E0D4
:10028000B0E0BC01CD01052E5CE0660F771F881F32
:10029000991F5A95D1F7502D2FEF30E040E050E0F4
:1002A0000E945F0330930D0120930C0110920A010C
:1002B00085EC8093BC0025C085EC8093BC0021C0F8
:1002C000E0911101F0E0ED59FE4F80818093BB0079
:1002D0008091110190E0019683709078992324F425
:1002E00001978C6F9F6F01968093110185EC80932D
:1002F000BC0007C085EC8093BC0003C085EC8093F4
:10030000BC00FF91EF91BF91AF919F918F917F9131
:100310006F915F914F913F912F910F900FBE0F9072
:100320001F901895F8940E945E0080E30E94800060
:100330000E940B036894CC24C3F8D12C0F2EFEE04E
:10034000EF2EF02D01E020E040E060E081E00E942F
:10035000F8018FE39CE90E9406030E9490007894C4
:10036000809100010E94E60080E00E946D00C3E6DB
:10037000D1E0888381E00E946D00898382E00E9441
:100380006D008A8383E00E946D008B8320910E01B3
:1003900030910F0180910C0190910D0128173907C0
:1003A0004CF40E94AF008FE79EE30197F1F700C085
:1003B0000000D6CF20910E0130910F0180910C01E9
:1003C00090910D01821793074CF40E94CA008FE7A9
:1003D0009EE30197F1F700C00000C2CF80E00E94C9
:1003E00097008FE39FE10197F1F700C00000B8CFBD
:1003F000CF92DF92EF920F93813019F484B1826033
:1004000084B9613019F484B1846084B91092800099
:1004100010928100013009F055C087E0E81631F1F3
:100420008E1538F085E0E81659F086E0E81699F068
:100430003EC08EE0E81629F18FE0E81669F137C07A
:10044000E0E8F0E0808181608083E1E8F0E0808195
:100450008860808380C0E0E8F0E0808182608083F3
:10046000E1E8F0E080818860808375C0E0E8F0E03A
:10047000808183608083E1E8F0E080818860808310
:100480006AC0E0E8F0E0808182608083E1E8F0E02B
:100490008081886180835FC0E0E8F0E080818360D4
:1004A0008083E1E8F0E080818861808354C0E0E8E7
:1004B000F0E0808181608083E1E8F0E08081886005
:1004C000808349C08E2D90E0FC013197EB30F1051F
:1004D000E8F5EC5CFF4F0C947E03E0E8F0E08081EF
:1004E0008160808338C0E0E8F0E0808182608083B2
:1004F00032C0E0E8F0E08081836080832CC0E1E8D6
:10050000F0E080818061808326C0E0E8F0E08081B7
:1005100081608083E1E8F0E08081806180831BC09E
:10052000E0E8F0E0808182608083E1E8F0E08081B3
:100530008061808310C0E0E8F0E080818360808388
:10054000E1E8F0E080818061808305C0E0E8F0E0D0
:10055000808181608083411106C0E0E8F0E0808105
:100560008068808305C0E0E8F0E08081806C808353
:10057000211106C0E0E8F0E080818062808305C040
:10058000E0E8F0E080818063808381E0C816D104D8
:1005900031F4E1E8F0E08081816080832DC088E063
:1005A000C816D10431F4E1E8F0E0808182608083F4
:1005B00023C080E4C816D10431F4E1E8F0E0808182
:1005C0008360808319C0C11481E0D80631F4E1E86A
:1005D000F0E08081846080830FC0C11484E0D8067D
:1005E00031F4E1E8F0E080818560808305C0E1E8D6
:1005F000F0E08081816080830F91EF90DF90CF9059
:1006000008959093890080938800089590938700BF
:100610008093860008951092C50087E68093C400F9
:1006200086E08093C20088E98093C10008951F92FC
:100630000F920FB60F9211242F938F939F93EF93E6
:10064000FF932091C6008FB7909112019F3050F414
:10065000E091120191E09E0F90931201F0E0E959B0
:10066000FE4F20838FBFFF91EF919F918F912F912C
:100670000F900FBE0F901F901895A1E21A2EAA1B83
:10068000BB1BFD010DC0AA1FBB1FEE1FFF1FA21742
:10069000B307E407F50720F0A21BB30BE40BF50B3F
:1006A000661F771F881F991F1A9469F760957095C8
:1006B000809590959B01AC01BD01CF010895052E59
:1006C00097FB1EF400940E94760357FD07D00E940A
:1006D0003D0307FC03D04EF40C94760350954095EF
:1006E000309521953F4F4F4F5F4F089590958095DE
:1006F000709561957F4F8F4F9F4F0895EE0FFF1FAD
:100700000590F491E02D0994A29FB001B39FC00120
:10071000A39F700D811D1124911DB29F700D811D2D
:0A0720001124911D0895F894FFCFF5
:0A072A005A01030206040C0809003E
:00000001FF
