S011000050726F796563746F312E737265638D
S11300000C9434000C9451000C9451000C94510045
S11300100C9451000C9451000C9451000C94510018
S11300200C9451000C9451000C9451000C94510008
S11300300C9451000C9451000C9451000C945100F8
S11300400C9451000C9451000C94C8020C9451006F
S11300500C9451000C9451000C9451000C945100D8
S11300600C9451000C94510011241FBECFEFD8E022
S1130070DEBFCDBF11E0A0E0B1E0EAE5FCE002C0E4
S113008005900D92A031B107D9F721E0A0E1B1E0CC
S113009001C01D92AA36B207E1F70E94B1010C9487
S11300A02B060C9400000F931F93CF938B019C019C
S11300B0C42F87B18F7C87B988B1806388B91092C7
S11300C0B900443031F4E9EBF0E080818160808351
S11300D00FC0403131F4E9EBF0E08081826080832D
S11300E007C0403429F4E9EBF0E080818360808329
S11300F060E074E284EF90E0A90198010E9410038B
S1130100CA01B90160517109810991094C2F50E06C
S11301109A01220F331F032E000C440B550B0E942F
S113012010032093B80084E08093BC00CF911F910A
S11301300F91089584EA8093BC008091BC008823C9
S1130140E4F79091B900987F81E0983009F080E05D
S1130150089584EA8093BC008091BC008823E4F76E
S11301609091B900987F81E0903109F080E0089582
S113017084E98093BC008091BC0084FDFCCF089589
S11301808093BB0084E88093BC008091BC008823EA
S1130190E4F78091B900887F883161F08091B900DB
S11301A0887F883249F08091B900887F803431F4A7
S11301B081E0089581E0089581E0089580E0089544
S11301C0FC01662321F084EC8093BC0003C084E826
S11301D08093BC009091BC009923E4F78091BB000C
S11301E0808381E00895FC0180818D3219F4319679
S11301F051E001C050E080E090E011C09C01220F6A
S1130200331F880F991F880F991F880F991F280F74
S1130210391F842F90E0C097820F931F319640813D
S113022020ED240F2A3050F3552319F09195819530
S1130230910908951F93CF93DF93EC01162F0E9429
S1130240EE02882309F18D30D1F38A3049F480918C
S11302501001C80FD11D18821092100181E015C041
S113026090911001492F50E0212F30E021503109A5
S11302704217530724F721E0290F20931001FE01B0
S1130280E90FF11D8083DBCF80E0DF91CF911F91D7
S113029008950E949A0086E40E94C0000E94A9006A
S11302A087E40E94C00061E087E591E00E94E000DD
S11302B060E088E591E00E94E0000E94B80080912F
S11302C0570190E0982F882720915801822B9C0198
S11302D0220F331F880F991F880F991F880F991FAA
S11302E0280F391FABEABAEA0E9432039695879524
S11302F09695879596958795909316018093150109
S11303000895CF93DF93D82FC62F0E949A0080E6DA
S11303100E94C0008D2F0E94C0008C2F0E94C0003C
S11303200E94B800DF91CF9108950E949A0081E65F
S11303300E94C00061E089E191E00E94E00061E078
S113034089E591E00E94E00061E088E191E00E948B
S1130350E00060E08AE191E00E94E0000E94B800C1
S11303600895CF93DF93CDB7DEB769970FB6F894AE
S1130370DEBF0FBECDBF41E060EA76E881E090E0E9
S11303800E9453000E94A8022FEF83EC99E02150B1
S113039080409040E1F700C0000078940E949A00E9
S11303A086E40E94C00081E00E94C0000E94B80060
S11303B08FE39CE90197F1F700C000000E949A00C6
S11303C086E40E94C00080E10E94C0000E94B80040
S11303D09FEF29EC88E0915020408040E1F700C075
S11303E00000A12CB12C00E010E0C12CD12CE12C98
S11303F0F12C33C08A818A3381F5CE0103960E94A1
S1130400F3002981243469F4992314F480E090E002
S11304108F3F910519F014F08FEF90E08093130152
S11304201CC0233561F4992314F480E090E0853BEB
S1130430910514F084EB90E0809300010EC0243504
S113044061F4992314F480E090E08F3F910519F052
S113045014F08FEF90E08093120169E1CE010196D0
S11304600E941A018111C6CF94E1E916F10440F00B
S113047060911201809100010E948101E12CF12C14
S11304802AEFC216D10420F00E944901C12CD12CBC
S113049084EFA81681E0B80620F00E949501A12CF3
S11304A0B12C003D97E0190708F440C08091110178
S11304B0811120C0809116018F93809115018F9333
S11304C081E091E09F938F938BE191E09F938F93D1
S11304D00E9441038BE191E00E94BB0281E0809382
S11304E011010F900F900F900F900F900F9000E05C
S11304F010E01CC0809114011F928F9388E091E05A
S11305009F938F938BE191E09F938F930E9441037C
S11305108BE191E00E94BB02109211010F900F90A9
S11305200F900F900F900F9000E010E08FE99FE084
S11305300197F1F700C000009FEFE91AF90A2FEFC5
S1130540C21AD20A0F5F1F4F8FEFA81AB80A85CFBD
S11305501092C50087E68093C40086E08093C200B1
S113056088E98093C10008959091C00095FFFCCF65
S11305708093C6000895CF93DF93EC0103C02196C6
S11305800E94B40288818111FACFDF91CF9108953E
S11305901F920F920FB60F9211242F938F939F9354
S11305A0EF93FF932091C6008FB7909117019F306E
S11305B050F4E091170191E09E0F90931701F0E041
S11305C0E65AFE4F20838FBFFF91EF919F918F9149
S11305D02F910F900FBE0F901F9018955FB7F8944E
S11305E0809117018823C9F080915A0191E00BC0D2
S11305F0292F30E0F901E65AFE4F4081F901E75A0C
S1130600FE4F40839F5F20911701921788F39091CA
S1130610170191509093170101C080E05FBF0895C6
S1130620A1E21A2EAA1BBB1BFD010DC0AA1FBB1FF2
S1130630EE1FFF1FA217B307E407F50720F0A21B64
S1130640B30BE40BF50B661F771F881F991F1A94D1
S113065069F760957095809590959B01AC01BD01FB
S1130660CF010895A29FB001B39FC001A39F700D55
S1130670811D1124911DB29F700D811D1124911DA6
S11306800895AEE0B0E0E7E4F3E00C9402060D89CF
S11306901E8986E08C831A8309838FEF9FE79E83EC
S11306A08D83AE01475E5F4F6F89788DCE010196D1
S11306B00E946303EF81F885E00FF11F10822E96EC
S11306C0E4E00C941E06ABE0B0E0E9E6F3E00C9441
S11306D0F4056C017B018A01FC0117821682838177
S11306E081FFCCC1CE0101963C01F6019381F70153
S11306F093FD859193FF81917F01882309F4BAC109
S1130700853239F493FD859193FF81917F01853280
S113071029F4B60190E00E945A05E7CF912C212CD0
S1130720312CFFE1F315D8F08B3279F038F48032B4
S113073079F08332A1F4232D20611DC08D3261F044
S1130740803369F4232D216016C0832D8260382EF6
S1130750E32DE4603E2E2AC0F32DF8601DC037FC63
S11307602DC020ED280F2A3040F08E32B9F436FC2B
S113077081C1232D2064322E19C036FE06C08AE0C2
S1130780989E200D1124922E11C0EAE02E9E200D79
S11307901124222EF32DF0623F2E08C08C3621F452
S11307A0832D8068382E02C0883641F4F70193FD0A
S11307B0859193FF81917F018111B3CF982F9F7D04
S11307C09554933028F40C5F1F4F9FE399830DC019
S11307D0833631F0833771F0833509F059C021C075
S11307E0F801808189830E5F1F4F88248394912CA4
S11307F0530113C02801F2E04F0E511CF801A080F0
S1130800B18036FE03C0692D70E002C06FEF7FEF48
S1130810C5010E944F054C018201F32DFF773F2E45
S113082016C0280122E0420E511CF801A080B180BC
S113083036FE03C0692D70E002C06FEF7FEFC50183
S11308400E9444054C01F32DF0683F2E820133FCD5
S11308501BC0822D90E088169906B0F4B60180E2A0
S113086090E00E945A052A94F4CFF50137FC859153
S113087037FE81915F01B60190E00E945A05211074
S11308802A9421E0821A91088114910471F7E8C036
S1130890843611F0893641F5F80137FE07C06081CE
S11308A07181828193810C5F1F4F08C060817181C7
S11308B0072E000C880B990B0E5F1F4FF32DFF764C
S11308C03F2E97FF09C090958095709561957F4F55
S11308D08F4F9F4FF0683F2E2AE030E0A3010E9423
S11308E09605882E861845C0853731F4232D2F7E32
S11308F0B22E2AE030E025C0932D997FB92E8F3691
S1130900C1F018F4883579F0B5C0803719F088370C
S113091021F0B0C0E92FE061BE2EB4FE0DC0FB2D66
S1130920F460BF2E09C034FE0AC0292F2660B22EFF
S113093006C028E030E005C020E130E002C020E13C
S113094032E0F801B7FE07C0608171818281938132
S11309500C5F1F4F06C06081718180E090E00E5FE4
S11309601F4FA3010E949605882E8618FB2DFF7742
S11309703F2E36FE0DC0232D2E7FA22E891458F44F
S113098034FE0BC032FC09C0832D8E7EA82E05C018
S1130990B82CA32C03C0B82C01C0B92CA4FE0FC0E2
S11309A0FE01E80DF11D8081803321F49A2D997E9A
S11309B0A92E09C0A2FE06C0B394B39404C08A2D24
S11309C0867809F0B394A3FC11C0A0FE06C0B2144B
S11309D088F4280C922C9B180EC0B21460F4B60153
S11309E080E290E00E945A05B394F7CFB21418F451
S11309F02B1802C0982C212CA4FE10C0B60180E351
S1130A0090E00E945A05A2FE17C0A1FC03C088E72B
S1130A1090E002C088E590E0B6010CC08A2D86788B
S1130A2059F0A1FE02C08BE201C080E2A7FC8DE276
S1130A30B60190E00E945A05891438F4B60180E3A7
S1130A4090E00E945A059A94F7CF8A94F301E80D36
S1130A50F11D8081B60190E00E945A058110F5CF06
S1130A60222009F442CEB60180E290E00E945A05A9
S1130A702A94F6CFF6018681978102C08FEF9FEF0B
S1130A802B96E2E10C941006FC0105906150704035
S1130A900110D8F7809590958E0F9F1F0895FC0143
S1130AA06150704001900110D8F7809590958E0F99
S1130AB09F1F08950F931F93CF93DF93FB0123810F
S1130AC021FD03C08FEF9FEF2CC022FF16C046818B
S1130AD05781248135814217530744F4A081B181A1
S1130AE09D012F5F3F4F318320838C932681378173
S1130AF02F5F3F4F3783268314C08B01EC01FB012A
S1130B000084F185E02D0995892BE1F6D80116962C
S1130B108D919C911797019617969C938E93169797
S1130B20CE01DF91CF911F910F910895FA01AA2769
S1130B30283051F1203181F1E8946F936E7F6E5F1C
S1130B407F4F8F4F9F4FAF4FB1E03ED0B4E03CD0CA
S1130B50670F781F891F9A1FA11D680F791F8A1FAD
S1130B60911DA11D6A0F711D811D911DA11D20D014
S1130B7009F468943F912AE0269F11243019305DCE
S1130B803193DEF6CF010895462F4770405D4193BF
S1130B90B3E00FD0C9F7F6CF462F4F70405D4A330C
S1130BA018F0495D31FD4052419302D0A9F7EACFD4
S1130BB0B4E0A6959795879577956795BA95C9F703
S1130BC000976105710508959B01AC010A2E0694F6
S1130BD05795479537952795BA95C9F7620F731FAF
S1130BE0841F951FA01D08952F923F924F925F92EC
S1130BF06F927F928F929F92AF92BF92CF92DF9229
S1130C00EF92FF920F931F93CF93DF93CDB7DEB78D
S1130C10CA1BDB0B0FB6F894DEBF0FBECDBF099421
S1130C202A88398848885F846E847D848C849B8478
S1130C30AA84B984C884DF80EE80FD800C811B8186
S1130C40AA81B981CE0FD11D0FB6F894DEBF0FBEB5
S10D0C50CDBFED010895F894FFCF25
S1130C5A5A4C3A25750D0A00503A25750D0A0000BA
S9030000FC
