:100000000C9434000C9451000C9451000C94510049
:100010000C9451000C9451000C9451000C9451001C
:100020000C9451000C9451000C9451000C9451000C
:100030000C9451000C9451000C9451000C945100FC
:100040000C9451000C9451000C94C8010C94510074
:100050000C9451000C9451000C9451000C945100DC
:100060000C948B000C94510011241FBECFEFD8E0EC
:10007000DEBFCDBF11E0A0E0B1E0E6E9F4E002C0F0
:1000800005900D92A030B107D9F721E0A0E0B1E0D2
:1000900001C01D92A033B207E1F70E94CE000C947C
:1000A00049020C94000080E480937C00EAE7F0E0D1
:1000B00087E8808380818064808380917A0086FDD8
:1000C000FCCF0895ECE7F0E09081907F8F70892B52
:1000D0008083EAE7F0E080818064808380917A0009
:1000E00086FDFCCF209178008091790090E0982FD8
:1000F0008827822B089597B19F7C97B998B1906318
:1001000098B990E0880F991F81608093BA0085E4C8
:100110008093BC0008951F920F920FB60F92112486
:100120008F938091B900887F8838F9F038F4803750
:1001300081F0803891F0803641F50BC0883BC9F0E2
:1001400018F4883AB1F021C0803CD9F0883CC9F05D
:100150001CC085EC8093BC001BC08091BB008093C9
:100160001B0185EC8093BC0013C085EC8093BC0020
:100170000FC0809100018093BB0085EC8093BC0090
:1001800007C085EC8093BC0003C085EC8093BC0065
:100190008F910F900FBE0F901F901895F8940E94AA
:1001A000530080E40E947B000E94BC016894CC2430
:1001B000C6F8D12CE12C01E020E040E060E081E0D5
:1001C0000E943F01789480911B010E94BA0180E057
:1001D0000E9462009C01A8E8B3E10E942F022FEF69
:1001E00033E040E050E00E941002245C39404109B5
:1001F0005109A8EEB3E00E943E0229EB30E040E056
:1002000050E00E94100255231CF420E030E0A901C8
:1002100030931F0120931E0181E00E9462009C0127
:10022000A0E7B7E10E942F022FEF33E040E050E05B
:100230000E94EE01DA01C90130931A0120931901DD
:1002400020911E0130911F01DC010E942F0228EE37
:1002500033E040E050E00E94EE0120930001309333
:10026000010140930201509303012FEF81EE94E0CE
:10027000215080409040E1F700C00000A4CFCF9211
:10028000DF92EF920F93813019F484B1806484B9C6
:10029000613019F484B1806284B9109280001092A8
:1002A0008100411104C084B5806884BD05C041301F
:1002B00019F484B5806C84BD211104C084B58062BA
:1002C00084BD05C0213019F484B5806384BD01115B
:1002D00010C0E11004C084B5816084BD1BC081E002
:1002E000E81218C084B5816084BD85B5886085BD7D
:1002F00011C0013079F4E11004C084B5836084BD7D
:1003000009C081E0E81206C084B5836084BD85B56C
:10031000886085BD81E0C816D10421F485B581606F
:1003200085BD23C088E0C816D10421F485B582605C
:1003300085BD1BC080E4C816D10421F485B5836057
:1003400085BD13C0C11481E0D80621F485B5846051
:1003500085BD0BC0C11484E0D80621F485B5856045
:1003600085BD03C085B5816085BD0F91EF90DF909D
:10037000CF90089587BD08951092C50087E68093B9
:10038000C40086E08093C20088E98093C10008958C
:100390001F920F920FB60F9211242F938F939F935A
:1003A000EF93FF932091C6008FB7909104019F3087
:1003B00050F4E091040191E09E0F90930401F0E06D
:1003C000E05EFE4F20838FBFFF91EF919F918F9151
:1003D0002F910F900FBE0F901F901895A1E21A2E2B
:1003E000AA1BBB1BFD010DC0AA1FBB1FEE1FFF1FD9
:1003F000A217B307E407F50720F0A21BB30BE40B29
:10040000F50B661F771F881F991F1A9469F760956F
:100410007095809590959B01AC01BD01CF01089529
:10042000052E97FB1EF400940E94270257FD07D06B
:100430000E94EE0107FC03D04EF40C942702509565
:100440004095309521953F4F4F4F5F4F08959095C0
:100450008095709561957F4F8F4F9F4F0895A29F14
:10046000B001B39FC001A39F700D811D1124911D88
:10047000B29F700D811D1124911D08950E942F02BD
:10048000A59F900DB49F900DA49F800D911D1124E8
:060490000895F894FFCF6F
:00000001FF
