S011000050726F796563746F312E737265638D
S11300000C9434000C9451000C9451000C94510045
S11300100C9451000C9451000C9451000C94510018
S11300200C9451000C9451000C9451000C94510008
S11300300C9451000C9451000C9451000C945100F8
S11300400C9451000C9451000C9422050C94510012
S11300500C9451000C9451000C9451000C945100D8
S11300600C9451000C94510011241FBECFEFD8E022
S1130070DEBFCDBF11E0A0E0B1E0ECE6F1E102C0EB
S113008005900D92AE32B107D9F721E0AEE2B1E0AE
S113009001C01D92A139B207E1F70E94D8020C9465
S11300A0B4080C9400000F931F93CF938B019C0111
S11300B0C42F87B18F7C87B988B1806388B91092C7
S11300C0B900443031F4E9EBF0E080818160808351
S11300D00FC0403131F4E9EBF0E08081826080832D
S11300E007C0403429F4E9EBF0E080818360808329
S11300F060E074E284EF90E0A90198010E94990500
S1130100CA01B90160517109810991094C2F50E06C
S11301109A01220F331F032E000C440B550B0E942F
S113012099052093B80084E08093BC00CF911F917F
S11301300F91089584EA8093BC008091BC008823C9
S1130140E4F79091B900987F81E0983009F080E05D
S1130150089584EA8093BC008091BC008823E4F76E
S11301609091B900987F81E0903109F080E0089582
S113017084E98093BC008091BC0084FDFCCF089589
S11301808093BB0084E88093BC008091BC008823EA
S1130190E4F78091B900887F883161F08091B900DB
S11301A0887F883249F08091B900887F803431F4A7
S11301B081E0089581E0089581E0089580E0089544
S11301C0FC01662321F084EC8093BC0003C084E826
S11301D08093BC009091BC009923E4F78091BB000C
S11301E0808381E008959BB193709BB995B19C7F06
S11301F095B99BB1282F30E0220F331F220F331FF4
S1130200292B2BB995B18295869586958370892B78
S113021085B9089585B1806185B985E08A95F1F73E
S1130220000085B18F7E85B908952FEF83EF91E0AB
S1130230215080409040E1F700C0000080E30E941C
S1130240F3000E940A018FE39CE90197F1F700C0D3
S1130250000080E30E94F3000E940A018FE193E012
S11302600197F1F700C0000080E30E94F3000E94B0
S11302700A018FE193E00197F1F700C0000088E3E1
S11302800E94F3000E940A018FE891E00197F1F7C0
S113029000C0000088E00E94F3000E940A018FE879
S11302A091E00197F1F700C0000081E00E94F300A3
S11302B00E940A018FE39CE90197F1F700C0000056
S11302C086E00E94F3000E940A018FE891E0019702
S11302D0F1F700C000008CE00E94F3000E940A01C4
S11302E08FE891E00197F1F700C00000089595B1FF
S11302F0946095B90E94F3000E940A010895CF9377
S1130300DF93EC0103C00E9477012196888181115B
S1130310FACFDF91CF91089595B19B7F95B90E9453
S1130320F3000E940A0185ED8A95F1F70000089513
S11303308F929F92AF92BF92CF92DF92EF92FF92F1
S11303401F93CF93DF93EB01282F30E0A8E8B3E1AC
S11303500E94BB056B017C012FEF30E040E050E0D0
S11303600E94990549015A01C701B60128E134EEFA
S113037043E050E00E949905122FC501B40128EE14
S113038033E040E050E00E9499052AE030E040E08C
S113039050E00E94990569017A01105D18838EE28C
S11303A08983ADECBCEC0E94BB05AC015695479526
S11303B0569547955695479580E3840F8A83CA01DD
S11303C0880F991F440F551F440F551F440F551F85
S11303D0480F591FC601841B950B805D8B8386E5EE
S11303E08C831D82DF91CF911F91FF90EF90DF905E
S11303F0CF90BF90AF909F908F900895CF92DF924F
S1130400EF92FF92CF93DF93EB0190E0A0E0B0E096
S1130410BC01CD01052E5AE0660F771F881F991F76
S11304205A95D1F7502D2FEF30E040E050E00E9474
S1130430990569017A01A901483E23E0520798F021
S11304409601369527953695279536952795A5ECEB
S1130450B0E20E94BB05929582958F7089279F70A8
S11304608927805D01C080E288834436510540F1CC
S113047096013695279536952795ABE7B4E10E940A
S1130480BB05FC01F695E7959F01ADECBCEC0E9421
S1130490BB059695879596958795969587959C0126
S11304A0220F331F880F991F880F991F880F991FD8
S11304B0820F931F9F01281B390BC901805D01C066
S11304C080E289834A30510530F19601ADECBCECF1
S11304D00E94BB05AC015695479556954795569590
S11304E047959A010E94BB059695879596958795A1
S11304F0969587959C01220F331F880F991F880FAB
S1130500991F880F991F820F931F9A01281B390B7B
S1130510C901805D01C080E28A839601ADECBCEC28
S11305200E94BB0596958795969587959695879590
S11305309C01220F331F880F991F880F991F880F62
S1130540991F820F931F9601281B390BC901805DE7
S11305508B831C82DF91CF91FF90EF90DF90CF903F
S11305600895FC0180818D3219F4319651E001C067
S113057050E080E090E011C09C01220F331F880FEF
S1130580991F880F991F880F991F280F391F842FCF
S113059090E0C097820F931F3196408120ED240F85
S11305A02A3050F3552319F09195819591090895B6
S11305B0CF93DF93CDB7DEB769970FB6F894DEBF5C
S11305C00FBECDBF41E060EA76E881E090E00E9492
S11305D053000E9402052FEF83EC99E021508040E4
S11305E09040E1F700C0000078948FEF84B98AB995
S11305F00E94150180E80E948C0183E091E00E9432
S11306007F010E949A0086E40E94C00081E00E945B
S1130610C0000E94B8008FE39CE90197F1F700C085
S113062000000E949A0086E40E94C00080E10E94BB
S1130630C0000E94B8009FEF29EC88E09150204050
S11306408040E1F700C00000A12CB12CC12CD12CBA
S1130650E12CF12C812C912C00E010E03DC08A812A
S11306608A33D1F5CE0103960E94B1029C0199818F
S1130670943469F4332314F420E030E02F3F31053F
S113068019F014F02FEF30E02093310125C0933599
S113069061F4332314F420E030E0253B310514F0F9
S11306A024EB30E02093020117C0943569F433231E
S11306B014F420E030E02F3F310519F014F02FEF4F
S11306C030E02093300108C09D3431F481E0232BC5
S11306D009F480E08093010169E1CE0101960E9452
S11306E06A058111BCCF0431110550F180910101DB
S11306F0882319F00091000102C0009102018823AF
S113070019F010912F0102C0109130010E949A003B
S113071080E60E94C000802F0E94C000812F0E94AA
S1130720C0000E94B8000E949A0080E80E94C000A5
S1130730809131010E94C0000E94B80000E010E0E6
S11307409AEF8916910408F444C00E949A0086E442
S11307500E94C0000E94A90087E40E94C00061E0DA
S113076086E791E00E94E00060E087E791E00E9464
S1130770E0000E94B8008091760190E0982F8827CD
S113078020917701822B9C01220F331F880F991F20
S1130790880F991F880F991F280F391FABEABAEAEF
S11307A00E94BB059695879596958795969587950E
S11307B0909334018093330168E771E00E94FE0155
S11307C080EC0E948C0188E791E00E947F01812CDB
S11307D0912C2EE1A216B10488F0809133019091FE
S11307E03401803D974050F480913201833320F0EE
S11307F08FEF8093310102C01092310182E3C81659
S1130800D10408F4A4C00E949A0081E60E94C000AA
S113081061E088E391E00E94E00061E080E891E01B
S11308200E94E00061E087E391E00E94E00060E064
S113083089E391E00E94E0000E94B8000E949A00BF
S113084081E80E94C00060E082E391E00E94E00041
S11308500E94B80068E771E0809132010E9498011B
S113086086EC0E948C0188E791E00E947F018091D0
S11308700101882309F466C08091380190E0209139
S1130880800130E0A9014E5C5F4F481759077CF4A2
S113089080912F018F3F19F08B5F80932F018BEC98
S11308A00E948C0180E191E00E947F0112C0C296F7
S11308B08217930774F480912F01882319F08550CF
S11308C080932F018BEC0E948C018FE091E00E94B9
S11308D07F018091370190E02091390130E0A90136
S11308E04E5C5F4F48175907C4F480910001843B64
S11308F018F48E5F8093000180910001853B18F00D
S113090084EB809300018BEC0E948C0185E191E0E3
S11309100E947F01C12CD12C1AC0C2968217930762
S1130920A4F480910001882319F08250809300017F
S11309308BEC0E948C018BE191E00E947F01C12C21
S1130940D12C05C0C12CD12C02C0C12CD12C90EDCE
S1130950E91697E0F90608F440C080912E01811150
S113096020C0809134018F93809133018F938FE164
S113097091E09F938F938AE391E09F938F930E94DA
S1130980CA058AE391E00E94150581E080932E0157
S11309900F900F900F900F900F900F90E12CF12C6F
S11309A01CC0809132011F928F9386E291E09F9345
S11309B08F938AE391E09F938F930E94CA058AE301
S11309C091E00E94150510922E010F900F900F9048
S11309D00F900F900F90E12CF12C8FE99FE001977D
S11309E0F1F700C000000F5F1F4F9FEF891A990AAB
S11309F02FEFE21AF20A8FEFC81AD80A9FEFA91A4A
S1130A00B90A6ACE1092C50087E68093C40086E0D6
S1130A108093C20088E98093C10008959091C0003A
S1130A2095FFFCCF8093C6000895CF93DF93EC012C
S1130A3003C021960E940E0588818111FACFDF91AF
S1130A40CF9108951F920F920FB60F9211242F93F6
S1130A508F939F93EF93FF932091C6008FB790914C
S1130A6036019F3050F4E091360191E09E0F90934F
S1130A703601F0E0EF57FE4F20838FBFFF91EF91D7
S1130A809F918F912F910F900FBE0F901F901895EB
S1130A905FB7F894809136018823C9F08091810171
S1130AA091E00BC0292F30E0F901EF57FE4F408150
S1130AB0F901E058FE4F40839F5F20913601921761
S1130AC088F39091360191509093360101C080E0F3
S1130AD05FBF08951F93CF93DF93EC01162F0E94FD
S1130AE04805882309F18D30D1F38A3049F4809187
S1130AF03501C80FD11D18821092350181E015C04F
S1130B0090913501492F50E0212F30E021503109D7
S1130B104217530724F721E0290F20933501FE01E2
S1130B20E90FF11D8083DBCF80E0DF91CF911F912E
S1130B300895A1E21A2EAA1BBB1BFD010DC0AA1F1A
S1130B40BB1FEE1FFF1FA217B307E407F50720F032
S1130B50A21BB30BE40BF50B661F771F881F991FAD
S1130B601A9469F760957095809590959B01AC01F6
S1130B70BD01CF010895A29FB001B39FC001A39FFF
S1130B80700D811D1124911DB29F700D811D1124C2
S1130B90911D0895AEE0B0E0E0EDF5E00C948B0813
S1130BA00D891E8986E08C831A8309838FEF9FE762
S1130BB09E838D83AE01475E5F4F6F89788DCE0132
S1130BC001960E94EC05EF81F885E00FF11F108279
S1130BD02E96E4E00C94A708ABE0B0E0E2EFF5E079
S1130BE00C947D086C017B018A01FC01178216823A
S1130BF0838181FFCCC1CE0101963C01F601938132
S1130C00F70193FD859193FF81917F01882309F476
S1130C10BAC1853239F493FD859193FF81917F01A7
S1130C20853229F4B60190E00E94E307E7CF912CC6
S1130C30212C312CFFE1F315D8F08B3279F038F404
S1130C40803279F08332A1F4232D20611DC08D32CE
S1130C5061F0803369F4232D216016C0832D8260F6
S1130C60382EE32DE4603E2E2AC0F32DF8601DC01B
S1130C7037FC2DC020ED280F2A3040F08E32B9F415
S1130C8036FC81C1232D2064322E19C036FE06C0E5
S1130C908AE0989E200D1124922E11C0EAE02E9E27
S1130CA0200D1124222EF32DF0623F2E08C08C3625
S1130CB021F4832D8068382E02C0883641F4F70170
S1130CC093FD859193FF81917F018111B3CF982F7B
S1130CD09F7D9554933028F40C5F1F4F9FE39983B5
S1130CE00DC0833631F0833771F0833509F059C074
S1130CF021C0F801808189830E5F1F4F882483946B
S1130D00912C530113C02801F2E04F0E511CF8013D
S1130D10A080B18036FE03C0692D70E002C06FEF81
S1130D207FEFC5010E94D8074C018201F32DFF77A4
S1130D303F2E16C0280122E0420E511CF801A0806B
S1130D40B18036FE03C0692D70E002C06FEF7FEF03
S1130D50C5010E94CD074C01F32DF0683F2E82019E
S1130D6033FC1BC0822D90E088169906B0F4B601BE
S1130D7080E290E00E94E3072A94F4CFF50137FC67
S1130D80859137FE81915F01B60190E00E94E307EF
S1130D9021102A9421E0821A91088114910471F798
S1130DA0E8C0843611F0893641F5F80137FE07C0F2
S1130DB060817181828193810C5F1F4F08C06081C3
S1130DC07181072E000C880B990B0E5F1F4FF32DBA
S1130DD0FF763F2E97FF09C0909580957095619599
S1130DE07F4F8F4F9F4FF0683F2E2AE030E0A301E2
S1130DF00E941F08882E861845C0853731F4232D9C
S1130E002F7EB22E2AE030E025C0932D997FB92E93
S1130E108F36C1F018F4883579F0B5C0803719F0F1
S1130E20883721F0B0C0E92FE061BE2EB4FE0DC0BA
S1130E30FB2DF460BF2E09C034FE0AC0292F2660A2
S1130E40B22E06C028E030E005C020E130E002C048
S1130E5020E132E0F801B7FE07C060817181828130
S1130E6093810C5F1F4F06C06081718180E090E028
S1130E700E5F1F4FA3010E941F08882E8618FB2DAA
S1130E80FF773F2E36FE0DC0232D2E7FA22E891410
S1130E9058F434FE0BC032FC09C0832D8E7EA82E7C
S1130EA005C0B82CA32C03C0B82C01C0B92CA4FED7
S1130EB00FC0FE01E80DF11D8081803321F49A2DCD
S1130EC0997EA92E09C0A2FE06C0B394B39404C0AF
S1130ED08A2D867809F0B394A3FC11C0A0FE06C045
S1130EE0B21488F4280C922C9B180EC0B21460F42F
S1130EF0B60180E290E00E94E307B394F7CFB21406
S1130F0018F42B1802C0982C212CA4FE10C0B60192
S1130F1080E390E00E94E307A2FE17C0A1FC03C097
S1130F2088E790E002C088E590E0B6010CC08A2D05
S1130F30867859F0A1FE02C08BE201C080E2A7FCD2
S1130F408DE2B60190E00E94E307891438F4B601FB
S1130F5080E390E00E94E3079A94F7CF8A94F30128
S1130F60E80DF11D8081B60190E00E94E307811035
S1130F70F5CF222009F442CEB60180E290E00E942F
S1130F80E3072A94F6CFF6018681978102C08FEF9A
S1130F909FEF2B96E2E10C949908FC0105906150B7
S1130FA070400110D8F7809590958E0F9F1F08957B
S1130FB0FC016150704001900110D8F78095909524
S1130FC08E0F9F1F08950F931F93CF93DF93FB0101
S1130FD0238121FD03C08FEF9FEF2CC022FF16C099
S1130FE046815781248135814217530744F4A081F7
S1130FF0B1819D012F5F3F4F318320838C932681E4
S113100037812F5F3F4F3783268314C08B01EC0158
S1131010FB010084F185E02D0995892BE1F6D801C7
S113102016968D919C911797019617969C938E9383
S11310301697CE01DF91CF911F910F910895FA0178
S1131040AA27283051F1203181F1E8946F936E7F03
S11310506E5F7F4F8F4F9F4FAF4FB1E03ED0B4E0F4
S11310603CD0670F781F891F9A1FA11D680F791F35
S11310708A1F911DA11D6A0F711D811D911DA11D46
S113108020D009F468943F912AE0269F1124301956
S1131090305D3193DEF6CF010895462F4770405DF1
S11310A04193B3E00FD0C9F7F6CF462F4F70405DA0
S11310B04A3318F0495D31FD4052419302D0A9F7FB
S11310C0EACFB4E0A6959795879577956795BA95F5
S11310D0C9F700976105710508959B01AC010A2EBB
S11310E006945795479537952795BA95C9F7620F92
S11310F0731F841F951FA01D08952F923F924F9236
S11311005F926F927F928F929F92AF92BF92CF9293
S1131110DF92EF92FF920F931F93CF93DF93CDB79C
S1131120DEB7CA1BDB0B0FB6F894DEBF0FBECDBF14
S113113009942A88398848885F846E847D848C84E5
S11311409B84AA84B984C884DF80EE80FD800C81EE
S11311501B81AA81B981CE0FD11D0FB6F894DEBFD1
S10F11600FBECDBFED010895F894FFCF41
S113116C5A015A4C757820504F5420504F53004F0D
S113117C45535445004E4F52544500535552004C60
S111118C3A25750D0A00503A25750D0A00002B
S9030000FC
